:100000000C949E000C94BB000C94BB000C94BB00A1
:100010000C94BB000C94BB000C94BB000C94BE036E
:100020000C94BB000C94BB000C94FF040C947A0558
:100030000C94BB000C94BB000C94BB000C94BB0054
:100040000C94BB000C94BB000C94BB000C94BB0044
:100050000C94BB000C94BB000C94BB000C94BB0034
:100060000C94BB000C94BB000C94BB000C94BB0024
:100070000C94BB000C94BB000C94BB000C94BB0014
:100080000C94BB000C94BB000C94BB000C94BB0004
:100090000C94BB000C94BB000C94BB000C94BB00F4
:1000A0000C94BB000C94BB000C94BB00070502022F
:1000B000400000070581024000000904000002FF23
:1000C000FFFF0009022000010100A0FA5553422D54
:1000D00043414E0041726475696E6F204C4C430081
:1000E00041726475696E6F204C656F6E6172646FEA
:1000F0000004030904120100020000004009122359
:1001000023000101020301000000000200000001C1
:100110000000002F00000000127A00030000000819
:1001200000000002000000080000000400000001C0
:1001300000000040000000010000000011241FBE6C
:10014000CFEFDAE0DEBFCDBF11E0A0E0B1E0EAEB37
:10015000F0E102C005900D92AA30B107D9F722E074
:10016000AAE0B1E001C01D92A33FB207E1F70E94EF
:1001700015060C945B080C9400002FB7F894E091DE
:10018000F102F091F20230853093E9003091E800FD
:1001900035FF15C03BEF3093E800FC0185E181504D
:1001A00021F09091F1009193FACF8091E8008F7740
:1001B0008093E80086E08093F00281E001C080E057
:1001C0002FBF08954FB7F894E091F102F091F20239
:1001D00027812093E90020E030E05091E80055FDB0
:1001E00005C021503109C9F74FBF08952EEF209364
:1001F000E800FC0185E1815021F091919093F1009C
:10020000FACF8091E8008F778093E8004FBF662394
:1002100019F086E08093EF020895CF93DF93FC01FD
:100220009085A7EEB2E020E030E0291740F4EF011E
:10023000C20FD31F8C858D932F5F3F4FF6CF85E084
:10024000890F448155816681778176FD9064909312
:10025000E60277FF1BC07F714093E5025093E402F2
:10026000AB0166277727242F2C71942F937038E0E9
:10027000239F900D112498609093E30235E05695EA
:1002800047953A95E1F74093E20214C0577066270C
:1002900077279A0193E0369527959A95E1F7209371
:1002A000E2024295440F407E4093E3021092E50241
:1002B0001092E402DF91CF910895CF93DF93FC0178
:1002C000DB0181819081482F42954695477050E02F
:1002D00028E0929F400D511D1124052E000C660B45
:1002E000770B83FF1FC092E0440F551F661F771FD7
:1002F0009A95D1F78370480F511D611D711D762F9E
:10030000652F542F44278281480F511D611D711D97
:10031000762F652F542F44278381480F511D611D6F
:10032000711D7068848186FD70648F70848314965B
:100330004D935D936D937C931797848118968C935E
:10034000189780E09481891760F4282F30E0EF013E
:10035000C20FD31F9D81ED01C20FD31F9C878F5FFA
:10036000F1CFDF91CF9108951092E1021092E00257
:1003700008952091E80022FFFCCFFC01615020F09D
:100380008091F1008193FACF8BEF8093E80008957C
:100390002091120130911301A9014F5F5F4F5093DB
:1003A0001301409312014091100150911101241743
:1003B0003507A8F49091E8009570E1F39091E8007A
:1003C00092FD0FC08093F100809112019091130172
:1003D0008F739927892B19F48EEF8093E80081E0C1
:1003E000089580E00895EF92FF920F931F93CF93AB
:1003F000DF93EC01062F10E0C8010196880F0E94E0
:10040000C801F82E83E00E94C801F8220C0F1D1FBE
:10041000C017D10761F0FE0184910E94C801E82E47
:1004200080E00E94C8018E21F8222196F1CF8F2D05
:10043000DF91CF911F910F91FF90EF9008950F934F
:100440001F93CF93C62F8C01CC2351F0F8018491D8
:100450000E94C801C1500F5F1F4F8111F5CF01C02D
:1004600081E0CF911F910F910895FC0191818081CE
:10047000813C69F4943021F468E283E191E005C0A5
:100480009530E9F46CE087E091E00C941F02813430
:10049000B1F4911116C064E086E191E00E94B901C7
:1004A00081E04091160150911701609118017091FF
:1004B00019014F3E5E4B6105710509F43FC080E0B4
:1004C0000895913079F464E186E191E00E94B901E8
:1004D00084E1E6E1F1E0ACECB2E001900D928A95A6
:1004E000E1F72BC0923071F468E086E191E00E9460
:1004F000B901809116018093E10280911A018093E5
:10050000E0021BC09730D9F664E086E191E00E94DA
:10051000B9018091160190911701A0911801B09135
:10052000190181309105A105B10511F45C9A05C04E
:10053000892B8A2B8B2B19F65C9881E00895CF9339
:10054000FC019381913021F462E185EF90E023C0BA
:100550009230C9F469E083EC90E00E941F02C82F3A
:1005600069E08AEB90E00E941F02C82367E083EBFA
:1005700090E00E941F02C82367E08CEA90E00E948E
:100580001F028C2320C09330E9F48281811106C0C0
:1005900064E081EF90E0CF910C941F02823021F44F
:1005A00061E180EE90E00BC0813021F46CE084EDDD
:1005B00090E005C0833031F468E08CEC90E0CF919E
:1005C0000C94F30180E0CF910895FC0120812EBDB1
:1005D000262F215041F041810DB407FEFDCF3EB5DD
:1005E0004EBD3193F6CF6150FC01E60FF11D0DB405
:1005F00007FEFDCF2EB5208308958EBD00000DB4FB
:1006000007FEFDCF8EB508950F931F93CF93DF9311
:10061000082F162FD42FCFB7F894289885E00E9482
:10062000FD02802F0E94FD02812F0E94FD028D2F6E
:100630000E94FD02289ACFBFDF91CF911F910F91A9
:100640000895FF920F931F93CF93DF93C82FF62E39
:10065000D82FD295D07F10E31D0F0FB7F8942898AC
:1006600082E00E94FD0281E38D0F0E94FD026F2D4A
:1006700082EE92E00E94E502289A0FBFCF5FC3305E
:1006800009F4C0E08C2F8295807F42E063E0805DBA
:100690000E940403CF5FC33009F4C0E08C2F829521
:1006A000807F41E063E0805D0E94040348E06BE0EE
:1006B000812FDF91CF911F910F91FF900C94040334
:1006C0001F93CF93DF93182FD62FCFB7F894289886
:1006D00082E00E94FD02812F0E94FD028D2F0E9468
:1006E000FD02289ACFBFDF91CF911F910895FF920D
:1006F0000F931F93CF93DF93F82E8B01D42FCFB797
:10070000F894289883E00E94FD028F2D0E94FD023C
:100710006D2FC8010E94E502289ACFBFDF91CF91CB
:100720001F910F91FF900895CF93DF93D82FCFB7EC
:10073000F894289883E00E94FD028D2F0E94FD020C
:1007400080E00E94FD02289ACFBFDF91CF910895EB
:10075000CF93C82F482F60EE8FE00E9404038FE0F4
:100760000E949403807E282F30E04C2F50E081E0DF
:100770002417350709F480E0CF9108951F920F9256
:100780000FB60F921124BF92CF92DF92EF92FF9299
:100790000F931F932F933F934F935F936F937F9389
:1007A0008F939F93AF93BF93EF93FF93CF93DF9379
:1007B00000D0CDB7DEB742E0BE016F5F7F4F8CE265
:1007C0000E9477031981212F2170B22E10FF0BC0D8
:1007D0004DE06CE271E081E60E94770340E061E069
:1007E0008CE20E940403812F8270C82E11FF0BC07F
:1007F0004DE069E371E081E70E94770340E062E049
:100800008CE20E940403212F2470D22E12FF05C017
:1008100040E064E08CE20E940403812F8870E82E9F
:1008200013FF05C040E068E08CE20E940403212F22
:100830002071F22E14FF05C040E060E18CE20E94BE
:100840000403012F007215FF08C08A8180932A01DA
:1008500040E060E28CE20E940403BB2059F066E4B1
:1008600071E08CE291E00E945D0161E086E491E03C
:100870000E94E200CC2059F06AE571E089E391E042
:100880000E945D0161E08AE591E00E94E200DD20C6
:1008900069F08091C60224E1829FC001112460E0CA
:1008A0008A5B9E4F0E94E2001092C602EE2069F021
:1008B0008091C70224E1829FC001112460E08A5B1D
:1008C0009E4F0E94E2001092C702FF2069F08091C3
:1008D000C80224E1829FC001112460E08A5B9E4F20
:1008E0000E94E2001092C802002309F46CC08091BB
:1008F0002A0198E09093B6021092B80220E030E00E
:10090000F901E255FD4F14862F5F3F4F2830310526
:10091000B9F740E050E060E070E24093B2025093DB
:10092000B3026093B4027093B50285FF12C0809148
:10093000B2029091B302A091B402B091B50280646A
:100940008093B2029093B302A093B402B093B50225
:1009500035C04091B2025091B3026091B4027091DF
:10096000B50244604093B2025093B3026093B40264
:100970007093B502982F907C29F091E09093B80283
:100980009093BB0284FF05C09091BB02906290934C
:10099000BB0283FF05C09091BB0290619093BB02A4
:1009A00082FF05C09091BB0298609093BB0281FFCB
:1009B00005C08091BB0284608093BB0261E08EEA37
:1009C00092E00E94E2000F900F90DF91CF91FF9193
:1009D000EF91BF91AF919F918F917F916F915F91B7
:1009E0004F913F912F911F910F91FF90EF90DF90CA
:1009F000CF90BF900F900FBE0F901F9018951F9231
:100A00000F920FB60F9211242F933F934F935F9342
:100A10006F937F938F939F93AF93BF93EF93FF93C6
:100A20008091E10083FF1AC08091E100877F80936D
:100A3000E1001092E90081E08093EB001092EC005D
:100A400082E38093ED00E091F102F091F2020190D7
:100A5000F081E02D099588E08093F0008091E1001D
:100A600082FF37C08091E1008B7F8093E10080910D
:100A7000F0028823A1F080911501811109C08091B5
:100A8000F00281508093F00291B380E1892781BB0D
:100A9000809115018F5F8F738093150101C08C9831
:100AA0008091EF028823A1F080911401811109C087
:100AB0008091EF0281508093EF029BB180E48927FF
:100AC0008BB9809114018F5F8F738093140101C0E3
:100AD0005E98FF91EF91BF91AF919F918F917F9120
:100AE0006F915F914F913F912F910F900FBE0F909B
:100AF0001F9018951F920F920FB60F9211242F93EB
:100B00003F934F935F936F937F938F939F93AF9395
:100B1000BF93EF93FF931092E9008091E80083FF69
:100B200073C01092130110921201EAE0F1E080917B
:100B3000F100819381E0E231F807C9F782EF8093F9
:100B4000E80080910A0187FF05C09091E80090FFBE
:100B5000FCCF03C09EEF9093E800982F9076C1F5EC
:100B600090910B01953051F48091E80080FFFCCF0B
:100B700080910C0180688093E30043C0963041F47B
:100B8000E091F102F091F2020280F381E02D30C099
:100B9000993099F5837089F5889A81E08093E9000E
:100BA0008093EB0091E89093EC0096E39093ED0036
:100BB00022E02093E9008093EB0080E88093EC0032
:100BC0009093ED008EE78093EA001092EA0019C03E
:100BD000E091F102F091F202868190E020910E0105
:100BE00030910F012817390741F40480F581E02D79
:100BF0008AE091E00995811104C081E28093EB00C5
:100C000003C08EEF8093E800FF91EF91BF91AF9109
:100C10009F918F917F916F915F914F913F912F9114
:100C20000F900FBE0F901F901895789480E091E080
:100C30009093F2028093F102549A809A569A849A81
:100C40005C9888985E988C988091D700816080939A
:100C5000D70089B5806189BD89B5826089BD09B435
:100C600000FEFDCF8091D80080688093D8008091ED
:100C7000D80080618093D8008091E000817F8093CC
:100C8000E0008CE08093E2008091D8008F7D80931B
:100C9000D8008091E0008E7F8093E0006E98809174
:100CA0006A008F7C806280936A00579A5F9AC4E1E1
:100CB000CC24CA94DC2C7601D2E050E6852E00E4E8
:100CC00040E5A42E11E080E090E0C89FF001C99FAC
:100CD000F00D1124EA5BFE4F108211821282138202
:100CE0001482158216821782108611861286138648
:100CF00020E030E0DF01A20FB31F1C961C922F5F93
:100D00003F4F28303105B1F7019683319105E9F65F
:100D1000C092AE02D092AF02E092B002F092B10265
:100D2000C0925A01D0925B01E0925C01F0925D01A9
:100D3000C0924601D0924701E0924801F0924901E9
:100D4000D093C302D093C2021092C4021092C80280
:100D50001092C7021092C6021092C502EE9810922D
:100D60002B018091E1028823E1F38091E00281FF71
:100D700003C000932B0106C0EE9A8091E00280FD33
:100D800080922B012091E0028091D8029091D902AB
:100D9000A091DA02B091DB024091DC025091DD02B9
:100DA0006091DE027091DF0290E0019736E0880FDB
:100DB000991F3A95E1F74150842B8093C90222FD97
:100DC00002C0E0E801C0E0EC4091D0025091D102B5
:100DD0006091D2027091D3028091CC029091CD02A9
:100DE000A091CE02B091CF02242F30E021503109E2
:100DF00093E0220F331F9A95E1F790E00197822B41
:100E0000932B8E2B8093CA028091D4029091D502AD
:100E1000A091D602B091D702815080688093CB0216
:100E2000209A289A9FB7F894289A209AACBC1DBDA6
:100E300084B1866084B99FBF9FB6F894289880ECEF
:100E40000E94FD02289A9FBE80E80E94A80381119B
:100E50003ACF6091C9028AE20E9460036091CA029F
:100E600089E20E9460036091CB0288E20E946003E5
:100E700010E3AA24A394A10E60E0812F0E946003D6
:100E800060E080E1810F0E94600360E080E2810FFA
:100E90000E9460031A2D1E3361F760E080E60E9415
:100EA000600360E080E70E946003B0902B0180E463
:100EB000B81202C060E001C06FE38BE20E946003E1
:100EC00044E064E680E60E94040340E060E680E7D8
:100ED0000E9404038B2D0E94A8038111F1CE809102
:100EE000E002982F9870B92E83FD02C007EF01C071
:100EF00008E0402F68E08FE00E9404038FE00E942A
:100F00009403887090E0BB2019F0402F50E002C09D
:100F100040E050E08417950709F0D1CE8091E002BF
:100F200081FF66C08091E102882309F4C6CE8EE677
:100F300091E00E94BD008823E1F08EE691E00E94DE
:100F40000D01682F80E00E94210304EF11E00150A1
:100F5000110979F08CE20E94940382FFF8CF40E0FF
:100F600064E08CE20E94040360E08EE691E00E945F
:100F7000E20080EC90E0019711F00000FCCF1FB779
:100F8000F894289880EA0E94FD0280E00E94FD0209
:100F9000289A1FBF80FF0DC04DE06CE271E081E632
:100FA0000E94770340E061E08CE20E94040321E0AC
:100FB00069C081FFB7CF4DE069E371E081E70E942E
:100FC000770340E062E08CE20E94040322E05AC012
:100FD0008091E102882309F470CE80818111F8CFDD
:100FE0008091C402803168F08091C402811123C0D5
:100FF000B090C5020B2D10E00B531D4FF801319638
:10100000E7CF8091C202C89FC00111248A5B9E4F26
:101010000E94BD00882341F38091C2028F5F8093BC
:10102000C202823111F4D093C2028091C4028F5F58
:101030008093C402D5CF8091C302C89FC001112400
:101040008A5B9E4F0E940D019091C302F80191832B
:101050009F5F9093C302923111F4D093C302909199
:10106000C40291509093C402682F8B2D0E942103DB
:1010700081E08B0D8093C502833009F0B9CF1092C7
:10108000C502B6CF215030E0C29F8001C39F100D32
:1010900011240A5B1E4F4DE0429FC001439F900DFB
:1010A0001124B801845D9E4F0E945D0161E0C8017A
:0A10B0000E94E20037CFF894FFCF52
:0A10BA00B4019F023502000102009C
:00000001FF
